:100000000C9434000C9449000C9449000C94490061
:100010000C9449000C9449000C9449000C9449003C
:100020000C9449000C9449000C9449000C9449002C
:100030000C9449000C9449000C9449000C9449001C
:100040000C9449000C9449000C9449000C9449000C
:100050000C9449000C9449000C9449000C944900FC
:100060000C9449000C94490011241FBECFEFD8E036
:10007000DEBFCDBF11E0A0E0B1E0E8EDF2E002C0EC
:1000800005900D92A03EB107D9F70E9445010C944E
:100090006A010C9400001092B90084E18093B800CA
:1000A00084E08093BC00089584EA8093BC00809132
:1000B000BC008823E4F7089584E98093BC0089EFAD
:1000C00090E00197F1F700C0000008958093BB0015
:1000D00084EC8093BC008091BC008823E4F70895F1
:1000E0000E9454008EE40E9466008FEF0E9466001A
:1000F00087E893E10197F1F700C0000084E30E94D4
:10010000660080E30E94660083EC99E00197F1F7B6
:1001100000C0000084E30E94660080E30E94660045
:1001200089EF90E00197F1F700C0000084E30E949E
:10013000660080E30E94660089EF90E00197F1F786
:1001400000C0000084E20E94660080E20E94660017
:1001500089EF90E00197F1F700C000000E945C0079
:100160000895CF93DF93C82F0E9454008EE40E941D
:100170006600DC2FD07F8D2F8C600E9466008D2F53
:1001800088600E94660080E1C89FE00111248C2FE6
:100190008C600E9466008C2F0E9466000E945C00AA
:1001A00083EF91E00197F1F700C0000083EF91E049
:1001B0000197F1F700C00000DF91CF9108950E94F0
:1001C0004B000E9470008CE20E94B1008CE00E9403
:1001D000B10086E00E94B10080E80E94B10008955D
:1001E000CF93DF93C82F0E9454008EE40E946600D4
:1001F000DC2FD07F8D2F8D600E9466008D2F89604F
:100200000E94660020E1C29FE00111248C2F8D60C6
:100210000E9466008C2F89600E9466000E945C002C
:100220008FE691E121E0815090402040E1F700C04D
:1002300000008FE691E121E0815090402040E1F7FD
:1002400000C00000DF91CF91089581E00E94B100CD
:1002500089EF90E00197F1F700C0000008950F9337
:100260001F93CF93DF938C01C0E0D0E003C00E94C6
:10027000F0002196F801EC0FFD1F80818111F7CF6E
:10028000DF91CF911F910F9108950E9464010E9408
:100290004B000E94DF000E94250180E091E00E9457
:1002A0002F010E9425018BE391E00E942F010E9403
:1002B000250186E791E00E942F010E9425018BEA2B
:1002C00091E00E942F01FFCF8FEF84B98AB18C603B
:0802D0008AB90895F894FFCFEC
:1002D800205061647265206E75657374726F207446
:1002E80075202020202020202020202020202020B1
:1002F800202020202020202020717565206573741F
:1003080061732C656E206C6F7320002071756520F9
:10031800616D616E20686F79206C6120202020203B
:1003280020202020202020202020202020202020C5
:100338002020202070617A20792064656C20726505
:10034800696E6F2020002064696F732062616A6F94
:1003580020792064656A6F2020202020202020201A
:100368002020202020202020202020202020202085
:10037800737520636F72617A6F6E00202D2D2D2D9D
:100388002D2D2D2D2D2D2D2D2D2D2D2D2D2D2D2D95
:100398002D2D2D2D2D2D2D2D2D2D2D2D2D2D2D2D85
:1003A8002D2D2D2D2D2D2D2D2D2D2D2D2D2D2D00A2
:04000003000000A851
:00000001FF
